:020000040000FA
:100000000C9463000C948B000C948B000C94C70927
:100010000C94C7090C94C7090C948B000C948B00AA
:100020000C948B000C948B000C948B000C943F0A66
:100030000C948B000C948B000C948B000C948B0014
:100040000C9406080C948B000C9476080C945008C1
:100050000C948B000C948B000C948B000C948B00F4
:100060000C94A8080C948B000000000024002700CA
:100070002A0000000008000201000003040700003D
:1000800000000000000000000000230026002900FE
:1000900000000000250028002B00040404040404D0
:1000A0000404020202020202030303030303010227
:1000B00004081020408001020408102001020408F6
:1000C0001020FB0A221411241FBECFEFD8E0DEBFA0
:1000D000CDBF12E0A0E0B1E0EAEEFDE202C0059083
:1000E0000D92AE3BB107D9F724E0AEEBB2E001C010
:1000F0001D92A43FB207E1F710E0C2E6D0E004C0D1
:100100002197FE010E94E814C136D107C9F70E9469
:100110003F0C0C94E8160C940000089508958F92FB
:100120009F92AF92BF92FF920F931F93CF93DF9353
:10013000F090DF042BE02F1508F44CC02091E1046F
:1001400008E512E0021B110927FD1395000F111F8E
:10015000000F111F2091E004C8E8D0E0C21BD109B4
:1001600027FDD395CC0FDD1FCC0FDD1F4E010D2ECB
:10017000000CAA08BB089801012E000C440B550B7B
:10018000281939094A095B09DC010E946C1424EB27
:1001900030E040E050E00E944214820E931EA41E04
:1001A000B51E8C169D062CF0E801801691060CF405
:1001B000E4012297CC0FDD1F2FB7F8948F2D90E02C
:1001C000FC01EE0FFF1FE80FF91FE758FB4FD2832A
:1001D000C1832FBFDF91CF911F910F91FF90BF90EF
:1001E000AF909F908F90089590917F0380917E03B0
:1001F0002FEF3FEF981748F4E92FF0E0E65AFC4F55
:10020000208130E09F5F90937F03C9010895909112
:100210007F0380917E032FEF3FEF981748F4E92F7B
:10022000F0E0E65AFC4F208130E09F5F90937F031F
:10023000C9010895833081F028F4813099F082302B
:10024000A9F008958730A9F08830C9F08430B1F45E
:10025000809180008F7D03C0809180008F77809394
:100260008000089584B58F7784BD089584B58F7D0F
:10027000FBCF8091B0008F778093B000089580917C
:10028000B0008F7DF9CF1F93CF93DF93282F30E0FD
:10029000F901EE58FF4F8491F901E255FF4FD491D7
:1002A000F901E656FF4FC491CC23A9F0162F811116
:1002B0000E941A01EC2FF0E0EE0FFF1FE057FF4FF6
:1002C000A591B4918FB7F894EC91111108C0D09515
:1002D000DE23DC938FBFDF91CF911F910895DE2B3A
:1002E000F8CFCF93DF9390E0FC01E255FF4F2491CC
:1002F00086569F4FFC0184918823D1F090E0880FAF
:10030000991FFC01E859FF4FA591B491FC01E057FA
:10031000FF4FC591D49161110EC09FB7F8948C9195
:10032000E22FE0958E238C932881E223E8839FBF00
:10033000DF91CF9108958FB7F894EC91E22BEC9375
:100340008FBFF6CF3FB7F89480915203909153033B
:10035000A0915403B091550326B5A89B05C02F3F2B
:1003600019F00196A11DB11D3FBFBA2FA92F982FDB
:100370008827BC01CD01620F711D811D911D42E0D6
:10038000660F771F881F991F4A95D1F708958F929E
:100390009F92AF92BF92CF92DF92EF92FF924B016A
:1003A0005C010E94A2016B017C010E94A2016C19F8
:1003B0007D098E099F09683E734081059105A8F368
:1003C00021E0821A9108A108B10888EEC80E83E0E6
:1003D000D81EE11CF11C81149104A104B10429F779
:1003E000FF90EF90DF90CF90BF90AF909F908F9055
:1003F00008950895AF92BF92CF92DF92EF92FF924D
:100400000F931F93CF93DF936C017B018B01040F3C
:10041000151FEB015E01AE18BF08C017D10759F0D8
:100420006991D601ED91FC910190F081E02DC6011A
:100430000995892B79F7C501DF91CF911F910F9114
:10044000FF90EF90DF90CF90BF90AF900895FC01A8
:10045000538D448D252F30E0842F90E0821B930B29
:10046000541710F0CF96089501970895FC01918DCF
:10047000828D981761F0A28DAE0FBF2FB11D5D96D2
:100480008C91928D9F5F9F73928F90E008958FEF74
:100490009FEF0895FC01918D828D981731F0828D28
:1004A000E80FF11D858D90E008958FEF9FEF08957F
:1004B000FC01918D228D892F90E0805C9F4F821BE3
:1004C00091098F739927089580ED93E00E94580257
:1004D00021E0892B09F420E0822F089580E090E04C
:1004E000892B29F00E94640281110C940000089568
:1004F000FC01A48DA80FB92FB11DA35ABF4F2C9199
:10050000848D90E001968F739927848FA689B7898F
:100510002C93A089B1898C91837080648C93938D86
:10052000848D981306C00288F389E02D80818F7D29
:1005300080830895EF92FF920F931F93CF93DF93E1
:10054000EC0181E0888F9B8D8C8D98131AC0E8890F
:10055000F989808185FF15C09FB7F894EE89FF89DE
:100560006083E889F98980818370806480839FBF7C
:1005700081E090E0DF91CF911F910F91FF90EF907C
:100580000895F62E0B8D10E00F5F1F4F0F7311278C
:10059000E02E8C8D8E110CC00FB607FCFACFE889C7
:1005A000F989808185FFF5CFCE010E947802F1CFD5
:1005B000EB8DEC0FFD2FF11DE35AFF4FF0829FB73B
:1005C000F8940B8FEA89FB8980818062CFCFCF932B
:1005D000DF93EC01888D8823B9F0AA89BB89E8896B
:1005E000F9898C9185FD03C0808186FD0DC00FB611
:1005F00007FCF7CF8C9185FFF2CF808185FFEDCF8F
:10060000CE010E947802E9CFDF91CF910895209129
:100610002003260F3327331F21323105ECF42091BC
:10062000A603FC0190E080E0243069F082E00895A8
:10063000A09120032191AC0140505D4FA40FB52F34
:10064000B11D2C930196861798F380912003680FB3
:100650006093200380E0089581E008951092A6033E
:1006600081E08093A5031092800361E082E10E9403
:10067000430161E083E10E944301E9EBF0E0808106
:100680008E7F808380818D7F808388E48093B80013
:1006900085E48093BC00089510927F0310927E033E
:1006A0001092AD031092CF030E942E038DE890E0CC
:1006B00090937D0380937C038EE890E090937B037E
:1006C00080937A030895CF93DF9391E09093FF0294
:1006D0008823B9F0C091B800D091BA008091BC00D5
:1006E0008A7B8093BC0060E082E10E94430160E06D
:1006F00083E10E9443010E942E03D093BA00C0936D
:10070000B800DF91CF9108958F929F92AF92BF92E0
:10071000CF92DF92EF92FF920F931F93CF93DF93CD
:10072000D091CF03D13208F0D7C0182FC091CE039B
:100730000E94A2016B017C018091A60381116BC014
:1007400082E08093A6031093A5038FEF8093A40308
:100750001092A303D093A203AEEAB3E0E2E8F3E081
:1007600080E0D81391C01092810380918103CC0F57
:10077000C82BC093810380918003813009F088C029
:10078000109280030E94A2016B017C018091810381
:100790008093BB008091A8039091A903A091AA0324
:1007A000B091AB03892B8A2B8B2BA1F00E94A20165
:1007B0000091A8031091A9032091AA033091AB03E3
:1007C0006C197D098E099F09061717072807390735
:1007D00008F442C08091BC0083FDD8CF85EC8093A3
:1007E000BC000E94A2016B017C018091A6038230B3
:1007F00009F450C08091A4038F3F09F46FC0809129
:10080000A403803209F46CC08091A403803309F4FE
:1008100069C084E026C08091A8039091A903A091AB
:10082000AA03B091AB03892B8A2B8B2B09F484CFBD
:100830000E94A2018090A8039090A903A090AA030F
:10084000B090AB036C197D098E099F098616970637
:10085000A806B90608F070CF8091A7030E94630331
:1008600085E01092AD031092CF031092AC03DF919C
:10087000CF911F910F91FF90EF90DF90CF90BF909D
:10088000AF909F908F9008959D9191938F5F69CFC6
:1008900085EEA5CF8091A8039091A903A091AA030A
:1008A000B091AB03892B8A2B8B2B09F49ECF0E942E
:1008B000A2010091A8031091A9032091AA033091ED
:1008C000AB036C197D098E099F09061717072807C6
:1008D000390708F08ACFC0CF81E0C3CF80E0C1CF15
:1008E00082E0BFCF83E0BDCF0895E0917F03809188
:1008F0007E03E81730F4F0E0E65AFC4F808190E088
:1009000008958FEF9FEF089580917E0390917F036C
:10091000891B990B0895CF92DF92EF92FF920F936C
:100920001F93CF93DF937C01CB018A012091AC030D
:10093000222389F0EB016B01C40ED51ECC15DD0519
:1009400069F06991D701ED91FC910190F081E02D62
:10095000C7010995F3CF642F0E940703C801DF91F7
:10096000CF911F910F91FF90EF90DF90CF9008955E
:10097000CF93DF931F92CDB7DEB769832091AC038D
:100980002223F9F02091CF03203258F021E030E00B
:10099000FC013383228390E080E00F90DF91CF91C0
:1009A00008958091AD03E82FF0E0E255FC4F998166
:1009B00090838F5F8093AD038093CF0381E090E0BD
:1009C000ECCF61E0CE0101960E940703F7CF2091A2
:1009D0004503309146032817390771F4909143037A
:1009E00080914403981741F0E0914303F0E0E15413
:1009F000FD4F808190E008958FEF9FEF0895EF9273
:100A0000FF920F931F93CF93DF93DC015C96ED90E1
:100A1000FC905D97E114F10479F481E090E0139685
:100A20009C938E93129790E080E0DF91CF911F917D
:100A30000F91FF90EF9008955196ED91FC91529790
:100A400050968C915097982F90950FB75E962C9159
:100A50005E97122F127021FD6095F894208111236A
:100A600019F1282B2083E7012197F1F728E0462F81
:100A700050E0308160FF1AC0382B3083E7012197A6
:100A8000F1F7BA0175956795215089F7112381F027
:100A90008081892380830FBF5C968D919C91019703
:100AA000F1F781E090E0C1CF2923DCCF3923E5CFF6
:100AB0009081892BEFCF2091450330914603281771
:100AC000390761F4809144032091430390E0805CF6
:100AD0009F4F821B91098F739927089590E080E0C2
:100AE0000895209145033091460328173907B9F43A
:100AF0009091430380914403981789F0E091430358
:100B0000F0E0E154FD4F80812091430330E02F5FFE
:100B10003F4F2F7333272093430390E008958FEFC7
:100B20009FEF08952FB7F894809156039091570343
:100B3000A0915803B09159032FBF8093C80490939C
:100B4000C904A093CA04B093CB0480EC94E00E9443
:100B5000710597FF26C02FB7F894809156039091A6
:100B60005703A0915803B09159032FBF4091C80477
:100B70005091C9046091CA047091CB04841B950BF9
:100B8000A60BB70B4091C4045091C5046091C604F4
:100B90007091C70484179507A607B707B0F28FEFC7
:100BA0009FEF0895FC01848191E09093AC038093C2
:100BB000CE031092AD031092CF038DE694E00E9415
:100BC000B80481E00C94840361E08BE00E9443014F
:100BD00061E089E00E94430161E08CE00E944301F2
:100BE00061E08AE00C94430190E080E008950F9367
:100BF0001F93CF93DF93EC01042F6B8711E01987CC
:100C00008885880F9F819460892B2A8598E0299F89
:100C100090011124822B607F682BCE010E94D205A7
:100C200019866885660F8A8528E0829FC001112495
:100C3000682B8F81682B8B85807F682BCE010E946B
:100C4000D205011131C08FE890E00197F1F71987C3
:100C50008F8184606885660F682B8A8528E0829F73
:100C6000C0011124682B8B8520E1829FC0011124D3
:100C7000682BCE010E94D20519866885660F8A8589
:100C800028E0829FC0011124682B8F81682B8B85FF
:100C900020E1829FC0011124682BCE01DF91CF910A
:100CA0001F910F910C94D205DF91CF911F910F915D
:100CB00008951092E9041092EA049091E7048917CC
:100CC00008F4982F8091E804861708F460E0E62F76
:100CD000F0E0E95FFE4F6081690F606840E082EEFE
:100CE00094E00E94F7058FE890E00197F1F70895EE
:100CF000E2EEF4E01782108640E061E0CF010E944E
:100D0000F7058BEF98E10197F1F70895E2EEF4E033
:100D10001782108664856E7F6487686040E0CF012B
:100D20000E94F7058FE890E00197F1F70895E2EE51
:100D3000F4E0178210866485862F8160848769605D
:100D400040E0CF010E94F7058FE890E00197F1F7AE
:100D5000089521E0FC012783108640E00E94F705FA
:100D60008FE990E00197F1F781E090E00895EF922C
:100D7000FF920F931F93CF93DF9324E08E39920756
:100D800071F12091A2043091A304FC0144815581AA
:100D900024173507E1F4232B11F100919E041091E3
:100DA0009F04C081D181F80181918F018823B9F01E
:100DB000082E000C990B0E94D0167C018991082EF8
:100DC000000C990B0E94D016E816F90661F380E03A
:100DD000DF91CF911F910F91FF90EF90089581E0E7
:100DE000F7CFFC0180819181009711F00C948A1556
:100DF00008950F931F93CF93DF93EC01888199811E
:100E0000009759F02A813B812617370730F081E09F
:100E1000DF91CF911F910F9108958B016F5F7F4FED
:100E20000E941316009759F0998388831B830A83C5
:100E30002C813D81232B59F7FC011082E8CF80E003
:100E4000E7CFEF92FF920F931F93CF93DF93EC01C5
:100E50007B01198218821B821A821D821C82FB016F
:100E600001900020E9F731978F01061B170BB8019D
:100E70000E94F90628813981811113C0211531059D
:100E800019F0C9010E948A15198218821D821C82DC
:100E90001B821A82DF91CF911F910F91FF90EF90EB
:100EA00008951D830C83B701C901DF91CF911F9174
:100EB0000F91FF90EF900C94E116FB010190002040
:100EC000E9F73197AF01461B570BDC01ED91FC911F
:100ED0000280F381E02D09948F929F92AF92BF928E
:100EE000EF92FF920F931F93CF93DF93CDB7DEB7AF
:100EF000A1970FB6F894DEBF0FBECDBF7C01FA01FB
:100F0000CB0119A2223008F42AE08E010F5D1F4F99
:100F1000822E912CB12CA12CBF01A50194010E941D
:100F2000AB14F901CA016A300CF5605DD8016E930B
:100F30008D01232B242B252B79F790E080E010974F
:100F400021F0BD01C7010E945D07A1960FB6F8947C
:100F5000DEBF0FBECDBFDF91CF911F910F91FF90EC
:100F6000EF90BF90AF909F908F900895695CDECF17
:100F70000F931F93CF93DF93EC010E945D078C01C9
:100F80006DE471E0CE010E945D07800F911FDF913B
:100F9000CF911F910F9108950C945D0785ED80937B
:100FA000BC008091A8039091A903A091AA03B091DD
:100FB000AB030796A11DB11D23E0B695A7959795A4
:100FC00087952A95D1F72091BC0024FD03C010928B
:100FD000A60308954091A8035091A9036091AA0324
:100FE0007091AB03452B462B472B69F30097A10566
:100FF000B10541F02AE22A95F1F700C00197A10955
:10100000B109E1CF8091A7030C9463031F920F9263
:101010000FB60F9211242F933F938F939F93AF930B
:10102000BF938091560390915703A0915803B091BC
:1010300059033091510323E0230F2D3758F50196C2
:10104000A11DB11D20935103809356039093570324
:10105000A0935803B0935903809152039091530386
:10106000A0915403B09155030196A11DB11D809329
:10107000520390935303A0935403B0935503BF912D
:10108000AF919F918F913F912F910F900FBE0F9035
:101090001F90189526E8230F0296A11DB11DD2CFEF
:1010A0001F920F920FB60F9211242F933F934F93DD
:1010B0005F936F937F938F939F93AF93BF93EF93C0
:1010C000FF9380ED93E00E947802FF91EF91BF9132
:1010D000AF919F918F917F916F915F914F913F91D0
:1010E0002F910F900FBE0F901F9018951F920F9287
:1010F0000FB60F9211242F938F939F93EF93FF932B
:10110000E091E003F091E1038081E091E603F0914A
:10111000E70382FD1BC090818091E9038F5F8F738D
:101120002091EA03821741F0E091E903F0E0E053F7
:10113000FC4F958F8093E903FF91EF919F918F91E1
:101140002F910F900FBE0F901F9018958081F4CFB4
:101150001F920F920FB60F9211242F933F934F932C
:101160005F936F937F938F939F93AF93BF93EF930F
:10117000FF938091B900887F803609F44AC0F0F56A
:10118000883209F4A7C018F5803109F49BC0B8F47F
:10119000882309F4F9C0883009F494C0FF91EF91D5
:1011A000BF91AF919F918F917F916F915F914F917F
:1011B0003F912F910F900FBE0F901F90189588317F
:1011C00009F488C0803251F78093A40314C080349E
:1011D00009F49DC040F48033B9F38833F9F6809365
:1011E000A40385ECB0C0803509F485C0883509F4C6
:1011F00096C0883499F60E94CE07D0CF883909F47A
:101200008CC038F5883729F050F4883611F08037D3
:1012100029F683E08093A6031092420357C08838D2
:1012200009F47BC0803919F0803809F0B7CF80917C
:101230004203803208F071C0E091420381E08E0FDA
:10124000809342038091BB00F0E0EE5DFC4F808311
:101250003DC0803B39F0E0F4803A09F479C0883A27
:1012600009F09CCF84E08093A60310922103109292
:101270002003E0917C03F0917D0309958091200388
:1012800081110FC081E0809320031092000309C0F8
:10129000803C09F4A6CF883C09F4A3CF883B09F031
:1012A0007DCFE091210381E08E0F80932103F0E058
:1012B000E050FD4F80818093BB009091210380918D
:1012C000200329C0809181038093BB0085EC80932B
:1012D000BC0064CF9091A3038091A203981758F5A6
:1012E000E091A30381E08E0F8093A303F0E0EE571B
:1012F000FC4F8081E9CFE091A30381E08E0F8093C2
:10130000A3038091BB00F0E0EE57FC4F80839091E7
:10131000A3038091A2039817C8F285E8D8CFE09183
:10132000A30381E08E0F8093A3038091BB00F0E0C4
:10133000EE57FC4F80838091A50381115CCF81E043
:101340008093800384EA8093BC001092A60326CF8A
:1013500085EC8093BC001092A603809142038032FA
:1013600030F4E0914203F0E0EE5DFC4F10826091BA
:10137000420370E0E0917A03F0917B0382E293E014
:101380000995109242030ACF1092A40334CF1F9202
:101390000F920FB60F9211242F933F934F935F93A9
:1013A0006F937F938F939F93AF93BF93EF93FF932D
:1013B000E0914503F0914603309749F0A685B78543
:1013C0008585968D91FF14C09C918923A1F4FF918E
:1013D000EF91BF91AF919F918F917F916F915F91AD
:1013E0004F913F912F910F900FBE0F901F90189526
:1013F0009C91892361F7A389B4899C918589809503
:1014000089238C93868997890197F1F7608D718D77
:10141000A685B785558538E020E0CB010197F1F727
:10142000822F90E095958795282F4C91452309F0C0
:101430002068315091F7868D81FD2095809144037D
:1014400090E001968F73992730914303381799F0F4
:10145000A0914403B0E0A154BD4F2C93809344036A
:10146000828D938D0197F1F7A389B4898C91958929
:10147000892B8C93ACCF868D8160868FF1CF1F92A4
:101480000F920FB60F9211242F933F934F935F93B8
:101490006F937F938F939F93AF93BF93CF93DF937C
:1014A000EF93FF938091BE02C0919D04D0E087FF2F
:1014B00024C010928500109284008091BE028F5F3C
:1014C0008093BE028091BE02082E000C990B8C17EF
:1014D0009D0724F48091BE028C30C4F18091840079
:1014E00090918500049680349C4908F47AC08091DC
:1014F000840090918500049676C08091BE02082EEB
:10150000000C990B8C179D07C4F6E091BE028E2F3C
:10151000EE0F990BFC01EE0FFF1FE80FF91FE758C4
:10152000FB4F808186FFC9CFE091BE028E2FEE0F68
:10153000990BFC01EE0FFF1FE80FF91FE758FB4F57
:10154000808160E08F730E944301B7CF20918400B7
:1015500030918500E091BE028E2FEE0F990BFC01B9
:10156000EE0FFF1FE80FF91FE758FB4F81819281B3
:10157000820F931F9093890080938800E091BE02B0
:101580008E2FEE0F990BFC01EE0FFF1FE80FF91FD6
:10159000E758FB4F808186FF11C0E091BE028E2F7D
:1015A000EE0F990BFC01EE0FFF1FE80FF91FE75834
:1015B000FB4F808161E08F730E944301FF91EF91A7
:1015C000DF91CF91BF91AF919F918F917F916F915B
:1015D0005F914F913F912F910F900FBE0F901F90F1
:1015E000189580E49CE990938900809388008FEFA0
:1015F0008093BE02E3CF1092D3031092D20388EE01
:1016000093E0A0E0B0E08093D4039093D503A0933F
:10161000D603B093D7032FE031E03093D10320936A
:10162000D00325EC30E03093DD032093DC0324EC81
:1016300030E03093DF032093DE0320EC30E0309382
:10164000E1032093E00321EC30E03093E3032093A7
:10165000E20322EC30E03093E5032093E40326EC30
:1016600030E03093E7032093E6031092E9031092F1
:10167000EA031092EB031092EC03109270041092A4
:101680006F048093710490937204A0937304B093D9
:10169000740481E291E090936E0480936D04109243
:1016A000E5041092E40485E491E09093E3048093D0
:1016B000E20487E28093E6048FE08093E70481E010
:1016C0008093E8041092E9041092EA041092EB046B
:1016D0001092EC041092ED041092EE041092EF04BC
:1016E00080919D048C3008F0C6C091E0980F9093D3
:1016F0009D048093DF0490E0FC01EE0FFF1FE80FD4
:10170000F91FE758FB4F88EB9BE09283818310928F
:10171000C3041092C20488EE93E0A0E0B0E080938E
:10172000C4049093C504A093C604B093C70483E394
:1017300091E09093C1048093C0041092D70410925A
:10174000D6041092D9041092D8041092DB0410929F
:10175000DA041092DD041092DC046091DE046E7FE6
:101760006D7F6093DE046695617081E0682786E096
:101770000E94430161E086E00E947101E4EBF0E029
:10178000E491E093D004E0EAF0E0E491F0E0EE0FC1
:10179000FF1FE057FF4F859194919093D20480935F
:1017A000D10460E085E00E9471018091DE0481FD3A
:1017B00004C061E085E00E94430185E08093CC0491
:1017C000E3EBF0E0E491E093CD04EFE9F0E0E491A5
:1017D000F0E0EE0FFF1FEA57FF4F85919491909331
:1017E000CF048093CE041092AA041092AB041092FE
:1017F000AC041092AD041092AE041092AF0410929B
:10180000B0048FE097E29093B2048093B10483E038
:101810008093B3041092B4041092B5041092B604ED
:101820001092B7041092B80480E88093B904109223
:10183000BA041092BB041092BC041092BD048EEF47
:101840008093BE041092BF0488E690E09093A904B0
:101850008093A80480E28093A4041092A70487E5F3
:1018600090E09093A6048093A5046FE471E08EE964
:1018700094E00C9421078FEF8093DF0448CFCF933F
:10188000DF93CDB7DEB729970FB6F894DEBF0FBE52
:10189000CDBF789484B5826084BD84B5816084BDF9
:1018A00085B5826085BD85B5816085BD80916E00FE
:1018B000816080936E00109281008091810082602F
:1018C000809381008091810081608093810080916C
:1018D00080008160809380008091B100846080935B
:1018E000B1008091B00081608093B00080917A0057
:1018F000846080937A0080917A00826080937A007D
:1019000080917A00816080937A0080917A0080686B
:1019100080937A001092C10061E08BE00E94710117
:1019200061E089E00E94710161E08CE00E94710138
:1019300061E08AE00E94710160E082E00E94710132
:101940000E94E4050E944C0360E082EE94E00E9455
:10195000D20562E370E080E090E00E94C70110923F
:10196000E9041092EA0441E060E382EE94E00E9410
:10197000F7058BE991E40197F1F741E060E382EE2E
:1019800094E00E94F70583E592E00197F1F741E0CA
:1019900060E382EE94E00E94F7050FE810E0C801D2
:1019A0000197F1F741E060E282EE94E00E94F705D2
:1019B000C8010197F1F740E068E282EE94E00E94EE
:1019C000F705C8010197F1F71092E9041092EA04B3
:1019D0006091EE04862F84608093EE046C6040E09A
:1019E00082EE94E00E94F705C8010197F1F70E948A
:1019F00078061092E9041092EA046091EF04862FB1
:101A000082608093EF04666040E082EE94E00E9482
:101A1000F705C8010197F1F781E08093EC0468E0D5
:101A200082EE94E00E94D2050E947806E091E003E5
:101A3000F091E10382E08083E091DC03F091DD032B
:101A40001082E091DE03F091DF038FEC808310922F
:101A5000E803E091E403F091E50386E08083E09100
:101A6000E203F091E303808180618083E091E203EF
:101A7000F091E303808188608083E091E203F0913C
:101A8000E303808180688083E091E203F091E303C7
:101A900080818F7D80831092DB041092DA04109293
:101AA000D9041092D8041092D7041092D6048DE96C
:101AB00091E09093DD048093DC049091CC04963106
:101AC00008F047C02DEB30E03093D7042093D604C4
:101AD0002BE931E03093D9042093D8042CE231E093
:101AE0003093DB042093DA042091680084E098307E
:101AF00048F031E09E3008F430E081E001C0880F0A
:101B00003A95EAF7822B809368002DE630E0983012
:101B100050F02BE630E09E3030F02CE630E096318D
:101B200010F030E020E03093D4042093D304292F28
:101B300030E0983008F0DEC081E001C0880F9A954F
:101B4000EAF78093D5048091DC049091DD0401973D
:101B5000F1F78091DA049091DB04892B49F1E0914F
:101B60004503F091460324E0E03CF20709F1309789
:101B700039F0A389B4899C918589809589238C93B8
:101B80008091DE048E7F8093DE04109244031092D5
:101B9000430380EC94E09093460380934503E091E7
:101BA000D304F091D40480819091D504892B808353
:101BB0008091DF048C3008F051C061E087E00E9422
:101BC00071018091DF04282F30E0F901EE0FFF1F33
:101BD000E20FF31FE758FB4F9081907C9760908352
:101BE0001092E0041092E1042CE0622F0E94DC14B9
:101BF000829FB001112430E020E0AB01420F531F5F
:101C0000FA01EE0FFF1FE40FF51FE758FB4F90811D
:101C100096FD16C02F5F3F4F2C30310571F78111B3
:101C20000FC01092800082E08093810010928500A6
:101C300010928400B19A80916F00826080936F004F
:101C4000E091DF048E2F90E0FC01EE0FFF1FE80F04
:101C5000F91FE758FB4F80818064808390E080E02B
:101C60000E948F000E944C030E944C0368EE73E0B8
:101C700080E090E00E94C701F0EB2F2EF0E03F2EB5
:101C8000ACE98A2EA0E09A2EB0E0CB2EB0E0DB2E9D
:101C9000AA24AA941FE7B12E11E080EC94E00E94E0
:101CA0005B05892B09F480C06FE471E0CE010196D9
:101CB0000E9421070E94920597FD29C08F831886F4
:101CC000ED80FE808FEFE81AF80AB701CE01019689
:101CD0000E94F906882371F329813A818D819E81C2
:101CE000BE01695F7F4F820F931F0E94E116FE8243
:101CF000ED82E0CF9E3040F42850310981E001C0F0
:101D0000880F2A95EAF71DCF2E503109F7CF809121
:101D10009E0490919F04009709F4D7C069817A814D
:101D20006115710509F4CFC04091A0045091A10440
:101D30002D813E814217530708F4C5C00E94E11669
:101D40008D819E819093A3048093A2041E821D82A4
:101D5000CE0101960E94F1064091A2045091A30485
:101D600060919E0470919F0480ED93E00E94FA01BF
:101D70006DE471E080ED93E00E945D0760E571E045
:101D8000CE0101960E942107CE0101960E94B7065E
:101D9000082FCE0101960E94F106002309F4ACC081
:101DA0001093500310934F038091A8041093AC0339
:101DB0008093CE031092AD031092CF0360E08DE6C6
:101DC00094E00E94B80481E00E9484038091B304EF
:101DD000E8E0EE2EF12C813019F073E1E72EF12CC2
:101DE000E091A804E9870E94A2012B013C018091A7
:101DF000A6038111C0C00E2D1093A6031093A50356
:101E0000FFEFF093A4031092A3038FEF8E0D809346
:101E1000A20310938103909181038985880F892BF8
:101E20008093810380918003813009F096C31092E2
:101E300080030E94A2012B013C01809181038093C9
:101E4000BB008091A8039091A903A091AA03B0912F
:101E5000AB03892B8A2B8B2BA1F00E94A20120912E
:101E6000A8033091A9034091AA035091AB036419D0
:101E7000750986099709261737074807590708F48F
:101E80009BC08091BC0083FDD8CF85EC8093BC00C3
:101E90000E94A2012B013C018091A603813009F42C
:101EA00060C38091A303801710F40091A303E2E8BC
:101EB000F3E0AAE5B3E080E0801709F482C09191D5
:101EC0009D938F5FF9CF0E948A1589819A819093A3
:101ED0009F0480939E048B819C819093A1048093A6
:101EE000A0048D819E819093A3048093A2041A8202
:101EF00019821C821B822ACF63E571E0CE01019614
:101F00000E942107CE0101960E94B706082FCE013C
:101F100001960E94F106002329F0109350031092BD
:101F20004F0342CF66E571E0CE0101960E94210782
:101F3000CE0101960E94B706082FCE0101960E949D
:101F4000F106002319F010934E032ECF69E571E0DE
:101F5000CE0101960E942107CE0101960E94B7068C
:101F6000082FCE0101960E94F106002309F41CCF30
:101F700010934D0319CF8091A8039091A903A091CC
:101F8000AA03B091AB03892B8A2B8B2B09F42FCF9B
:101F90000E94A2012091A8033091A9034091AA03B5
:101FA0005091AB03641975098609970926173707FD
:101FB0004807590708F01BCF8091A7030E946303CD
:101FC00000E010927F0300937E030E151F0408F4B7
:101FD0006DC00E940701982F929597700AE08F704C
:101FE000909F800D11248093AA040E940701982FCE
:101FF000929597708F70909F800D11248093AB0401
:102000000E940701082F8074E82E802F06FFCBC2A4
:102010008F718093AC048091AC04982F92959F703F
:102020006AE0F62E8F709F9D800D11248093AC0482
:102030000E940701982F92959F708F709F9D800D31
:1020400011248093B0040E940701982F92959F70ED
:102050008F709F9D800D11248093AD040E94070115
:1020600084FB992790F98F709F9D800D1124809398
:10207000AE040E940701982F92959F708F709F9DCC
:10208000800D11248093AF04B092B204A092B104E9
:102090008091B304813009F093C20E94070184FF4C
:1020A00086C287FF82C28EEF8093BE048091AD040A
:1020B00080934C030091AE0400934B038091AF04D6
:1020C00090E090934A0380934903E4E7F0E0849121
:1020D000F101F490F401E490EE2009F496C381112B
:1020E0000E941A01EE2DF0E0EE0FFF1FEA57FF4F9E
:1020F000A591B4918C91F82209F487C3809148038B
:10210000811169C0402F50E070E060E02AE080EC6F
:1021100094E00E946C076CE571E080EC94E00E9412
:10212000CC0740914C0350E070E060E02AE080EC86
:1021300094E00E946C076CE571E080EC94E00E94F2
:10214000CC074091490350914A034053584F70E0E7
:1021500060E02AE080EC94E00E946C076DE471E09E
:1021600080EC94E00E945D076EE571E080ED93E005
:102170000E94CC0740914B0350E070E060E02AE001
:1021800080ED93E00E946C076FE280ED93E00E9487
:102190009A0240914C0350E070E060E02AE080ED4C
:1021A00093E00E946C076FE280ED93E00E949A0238
:1021B0004091490350914A0370E060E02AE080EDCD
:1021C00093E00E946C076DE471E080ED93E00E9463
:1021D0005D071093480385E480937C0080917A002A
:1021E000806480937A0080917A0086FDFCCF809194
:1021F00078009091790061E0843F91400CF060E0BC
:102200008DE00E944301809100018823C9F08091F4
:102210005003811105C080914E03882309F4F8C250
:102220000E9478066DE671E080ED93E00E94B807A9
:102230000E94E40568EE73E080E090E00E94C70130
:1022400080914E03882309F45CC00E94780660E008
:1022500082E00E94590660E871E082EE94E00E94FC
:10226000CC0761E081E00E9459066DE871E082EEE2
:1022700094E00E94CC076CE971E080ED93E00E944D
:10228000B8076CED75E080E090E00E94C7010E9405
:10229000E40560E08CE00E94430168E57CE882E0B0
:1022A00090E00E94C70161E08CE00E9443010E941F
:1022B000780660E082E00E94590660E871E082EEF4
:1022C00094E00E94CC0761E081E00E94590666EC30
:1022D00071E082EE94E00E94CC0768EB71E080ED43
:1022E00093E00E94B80760ED77E080E090E00E9404
:1022F000C70110924E0310925003109200011093E8
:10230000470380914703882309F46CC00E94780634
:1023100060E080E00E94590664ED71E082EE94E096
:102320000E94B80761E082E00E94590667EF71E001
:1023300082EE94E00E94CC070E94970665EE71E061
:1023400080ED93E00E94B8076CED75E080E090E0CE
:102350000E94C70161E08BE00E94430161E089E0D7
:102360000E94430161E08CE00E94430160E08AE04A
:102370000E94430168EB7BE080E090E00E94C7018F
:1023800061E08AE00E94430164E072E080ED93E046
:102390000E94B8070E9478060E94860660E080E0EE
:1023A0000E94590664ED71E082EE94E00E94B80745
:1023B00061E081E00E94590666E272E082EE94E0FC
:1023C0000E94CC076CED75E080E090E00E94C701B0
:1023D000109300011092470310924E031092500385
:1023E0000E94780680915003882309F45FC00E9400
:1023F000780660E083E00E94590666E372E082EEB0
:1024000094E00E94CC0761E080E00E94590661E4FC
:1024100072E082EE94E00E94CC070E94970662E58B
:1024200072E080ED93E00E94B8076CED75E080E00B
:1024300090E00E94C7010E94E40560E089E00E94EC
:10244000430160E27FEB82E090E00E94C70161E01F
:1024500089E00E9443010E9478060E94860660E09F
:1024600083E00E94590666E372E082EE94E00E94E7
:10247000CC0761E081E00E9459066AE772E082EED3
:1024800094E00E94CC076EE672E080ED93E00E943B
:10249000B8076CED75E080E090E00E94C701809184
:1024A0004F03882309F4C5C10E94E40580914D03C0
:1024B000882309F446C00E94E4050E94780660E083
:1024C00083E00E94590669E872E082EE94E00E947F
:1024D000CC0764E972E080ED93E00E94CC076CEDDC
:1024E00075E080E090E00E94C7018AE590E00E94DC
:1024F0008F006CED75E080E090E00E94C7010E94C3
:10250000780660E081E00E94590660EA72E082EE9F
:1025100094E00E94CC076FEA72E080ED93E00E94A5
:10252000CC0790E080E00E948F006CED75E080E0C9
:1025300090E00E94C7010E9478061093000110925B
:102540004D03C114D10409F4A8CB0E94640288236E
:1025500009F4A2CB0E9400009FCB25EE2093BC0083
:1025600097CC8091A8039091A903A091AA03B09160
:10257000AB03892B8A2B8B2B09F48ECC0E94A201F2
:102580002091A8033091A9034091AA035091AB0375
:1025900064197509860997092617370748075907E7
:1025A00008F07ACC09CD8F7334CD8FEF7DCD837059
:1025B0009927019711F480E177CD1092BE0476CD72
:1025C0001092B40480E88093B9040E940701282F78
:1025D000221F2227221F9091B404922B9093B404BF
:1025E000982F929597708F709F9D800D11248093E6
:1025F000B5040E9407019C0196E0359527959A95B0
:10260000E1F722709091B404292B2093B404982F01
:10261000929597708F709F9D800D11248093B604C2
:102620000E9407019C0145E0359527954A95E1F701
:1026300024709091B404292B2093B404982F929580
:1026400093708F709F9D800D11248093B7040E941A
:1026500007019C0154E0359527955A95E1F72870BC
:102660003091B404232B322F3F7009F4ADC0209376
:10267000B404982F929593707AE0F72E8F709F9DF7
:10268000800D11248093B8040E9407019C01E6E0AC
:1026900035952795EA95E1F722709091B904292B99
:1026A0002093B904982F929597708F709F9D800DFD
:1026B00011248093BA040E9407019C01F5E035952E
:1026C0002795FA95E1F724709091B904292B20936E
:1026D000B904982F929593708F709F9D800D11244F
:1026E0008093BB040E9407019C01A4E035952795C7
:1026F000AA95E1F728703091B904232B322F3E7050
:1027000009F46AC02093B904982F9E718F70890FC5
:102710008093BC040E940701F82E82FF68C09EEFE0
:102720009093BE0480FF60C09091B4049062909337
:10273000B40481FF61C08091B90480628093B904C0
:102740000E940701F7FC5AC08093BF04EE2029F0D5
:102750008091BF0480628093BF0405FF05C0809113
:10276000BF0480618093BF040E94070187FD48C0B9
:102770008093BD040E9407017C010E94070197011C
:10278000220F331F220F331F2C7F337056E0959595
:1027900087955A95E1F783709927822B932BE7FC55
:1027A00031C09093B2048093B1042091B104309170
:1027B000B20449E1429FC001439F900D11249093C0
:1027C000B2048093B10472CCAC01559547955595F0
:1027D00047954071242B4BCFAC01559547955595A6
:1027E00047954071242B8ECF1092B404A2CF8871EC
:1027F0008093BE041092B40480E8A0CF8064A4CF7C
:102800008150B6CF9C6F0197CCCF10924803E3CC98
:1028100061E089E00E94430161E08AE00E94430197
:1028200061E08CE00E94430160E08BE00E94430184
:1028300007CD109200011092470310934E0310929F
:10284000500334CE8EE994E00E94F10683E391E0D8
:102850009093C1048093C0048091450390914603F6
:10286000805C944071F4E091D304F091D4049081A1
:102870008091D5048095892380831092460310921D
:1028800045030895052E97FB1EF400940E945914E9
:1028900057FD07D00E94AB1407FC03D04EF40C94F4
:1028A000591450954095309521953F4F4F4F5F4FAC
:1028B000089590958095709561957F4F8F4F9F4FAC
:1028C00008950E94CD14A59F900DB49F900DA49FD4
:1028D000800D911D11240895B7FF0C9461140E947E
:1028E0006114821B930B08952F923F924F925F9237
:1028F0006F927F928F929F92AF92BF92CF92DF9210
:10290000EF92FF920F931F93CF93DF93CDB7DEB774
:10291000CA1BDB0B0FB6F894DEBF0FBECDBF099408
:102920002A88398848885F846E847D848C849B845F
:10293000AA84B984C884DF80EE80FD800C811B816D
:10294000AA81B981CE0FD11D0FB6F894DEBF0FBE9C
:10295000CDBFED010895A1E21A2EAA1BBB1BFD01FC
:102960000DC0AA1FBB1FEE1FFF1FA217B307E4076E
:10297000F50720F0A21BB30BE40BF50B661F771FC6
:10298000881F991F1A9469F76095709580959095A6
:102990009B01AC01BD01CF010895A29FB001B39F7F
:1029A000C001A39F700D811D1124911DB29F700D58
:1029B000811D1124911D0895991B79E004C0991F70
:1029C000961708F0961B881F7A95C9F78095089589
:1029D000EE0FFF1F0590F491E02D09940F931F93C4
:1029E000CF93DF938230910510F482E090E0E09184
:1029F000F204F091F30430E020E0B0E0A0E0309782
:102A000099F42115310509F44AC0281B390B2430EB
:102A10003105D8F58A819B816115710589F1FB012A
:102A200093838283FE0111C0408151810281138111
:102A300048175907E0F04817590799F4109761F0C3
:102A400012960C93129713961C933296CF01DF9136
:102A5000CF911F910F9108950093F2041093F30406
:102A6000F4CF2115310551F04217530738F0A90171
:102A7000DB019A01BD01DF01F801C1CFEF01F9CF00
:102A80009093F3048093F204CDCFFE01E20FF31F85
:102A9000819391932250310939832883D7CF209194
:102AA000F0043091F104232B41F420910301309183
:102AB00004013093F1042093F0042091010130913E
:102AC00002012115310541F42DB73EB740910501B2
:102AD00050910601241B350BE091F004F091F104B4
:102AE000E217F307A0F42E1B3F0B2817390778F0E5
:102AF000AC014E5F5F4F2417350748F04E0F5F1F44
:102B00005093F1044093F004819391939FCFF0E0B0
:102B1000E0E09CCFCF93DF930097E9F0FC01329780
:102B200013821282A091F204B091F304ED0130E01F
:102B300020E01097A1F420813181820F931F209112
:102B4000F0043091F1042817390709F061C0F093BF
:102B5000F104E093F004DF91CF910895EA01CE17DC
:102B6000DF07E8F54A815B819E0141155105B1F708
:102B7000E901FB83EA8349915991C40FD51FEC17F2
:102B8000FD0761F4808191810296840F951FE90110
:102B900099838883828193819B838A83F0E0E0E03C
:102BA00012968D919C9113970097B9F52D913C91B8
:102BB0001197CD010296820F931F2091F00430915E
:102BC000F1042817390739F6309751F51092F304BC
:102BD0001092F204B093F104A093F004BCCFD3831D
:102BE000C28340815181840F951FC817D90761F4B2
:102BF0004E5F5F4F88819981480F591F51834083F1
:102C00008A819B81938382832115310509F0B0CF9E
:102C1000F093F304E093F2049ECFFD01DC01C0CFFA
:102C200013821282D7CFB0E0A0E0E9E1F6E10C9484
:102C300076148C01009751F4CB010E94EE148C01A4
:102C4000C801CDB7DEB7E0E10C949214FC01E60FA9
:102C5000F71F9C0122503109E217F30708F49DC0C9
:102C6000D901CD91DC911197C617D70798F0C530DF
:102C7000D10530F3CE0104978617970708F3C61BDA
:102C8000D70B2297C193D1936D937C93CF010E9470
:102C90008A15D6CF5B01AC1ABD0A4C018C0E9D1E65
:102CA000A091F204B091F304512C412CF12CE12CB1
:102CB000109731F58091F0049091F10488159905F1
:102CC00009F05CC04616570608F058C08091010113
:102CD00090910201009741F48DB79EB74091050194
:102CE00050910601841B950BE817F90708F055C0B1
:102CF000F093F104E093F004F90171836083A0CFB5
:102D00008D919C91119712966C90129713967C90CE
:102D10001397A815B90559F56C0142E0C40ED11CF2
:102D2000CA14DB0420F1AC014A195B09DA011296DE
:102D3000159780F06282738251834083D9016D932D
:102D40007C93E114F10471F0D7011396FC93EE9398
:102D5000129776CF22968C0F9D1FF9019183808365
:102D6000F301EFCFF093F304E093F20469CF481638
:102D7000590608F42C017D01D3019ACFCB010E94A2
:102D8000EE147C01009749F0AE01B8010E94D816FC
:102D9000C8010E948A15870153CF10E000E050CF90
:102DA0009111089581548A5108F4805E855A0895DE
:102DB000FB01DC0102C001900D9241505040D8F758
:102DC0000895FB01DC0101900D920020E1F70895C8
:102DD00010E0C2E6D0E004C0FE010E94E814219693
:102DE000C336D107C9F7F894FFCF010000F404807F
:102DF0000000401454000000009A02FA012702E784
:102E000002580236024A0200000000B8048B04F4A3
:102E10000574048404F400750400000000FF04FA43
:102E200001F40574045B057105E70400000000A9C6
:102E300006FA01F405F9010D0A00646100646E00F0
:102E4000696E006370002F00525443204461746522
:102E500054696D653A20005475726E206F66662065
:102E60006169722073746F6E6500576174657220BA
:102E7000496E74616B650050756D70696E672049AD
:102E80006E202E2E2E00576174657220496E74617B
:102E90006B653A2050756D70696E6720496E2E2EF5
:102EA0002E00576174657220496E74616B653A201B
:102EB00050756D70696E6720446F6E6521004879AA
:102EC00064726F70686F6E696320536C746E004833
:102ED0007964726F70686F6E696320536C746E3AB8
:102EE00020496E6A656374696E672E2E2E004879DC
:102EF00064726F70686F6E696320536C746E3A20F1
:102F0000496E6A656374696E6720446F6E6521005F
:102F1000496E6A656374696F6E20446F6E65210047
:102F2000447261696E2050756D7000447261696E03
:102F3000696E67204F75742E2E2E200044726169D1
:102F40006E2050756D703A20447261696E696E67CB
:102F5000204F75742E2E2E00447261696E205075BC
:102F60006D703A20447261696E696E6720446F6EBD
:102F700065210043757474696E672E2E2E004375AB
:102F80007474696E672E2E2E0A00446F6E6520439E
:102F9000757474696E67212000446F6E65204375F7
:082FA0007474696E67210A00D8
:107800000C94343C0C94513C0C94513C0C94513CE1
:107810000C94513C0C94513C0C94513C0C94513CB4
:107820000C94513C0C94513C0C94513C0C94513CA4
:107830000C94513C0C94513C0C94513C0C94513C94
:107840000C94513C0C94513C0C94513C0C94513C84
:107850000C94513C0C94513C0C94513C0C94513C74
:107860000C94513C0C94513C11241FBECFEFD8E036
:10787000DEBFCDBF11E0A0E0B1E0ECE9FFE702C060
:1078800005900D92A230B107D9F712E0A2E0B1E065
:1078900001C01D92AD30B107E1F70E942D3D0C945F
:1078A000CC3F0C94003C982F959595959595959582
:1078B000905D8F708A307CF0282F295A8091C0000B
:1078C00085FFFCCF9093C6008091C00085FFFCCF60
:1078D0002093C6000895282F205DF0CF982F809127
:1078E000C00085FFFCCF9093C6000895EF92FF92F1
:1078F0000F931F93EE24FF2487018091C00087FD22
:1079000017C00894E11CF11C011D111D81E4E8164B
:1079100082E4F8068FE0080780E0180770F3E09132
:107920000401F091050109958091C00087FFE9CF1E
:107930008091C6001F910F91FF90EF9008950E94D3
:10794000763C982F8091C00085FFFCCF9093C600B5
:1079500091362CF490330CF09053892F089597555D
:10796000892F08951F930E949F3C182F0E949F3CCF
:107970001295107F810F1F9108951F93182F882350
:1079800021F00E94763C1150E1F71F9108951F935A
:10799000182F0E94763C803249F0809103018F5F5E
:1079A000809303018530C1F01F9108958091C0003C
:1079B00085FFFCCF84E18093C6008091C00085FFE5
:1079C000FCCF1093C6008091C00085FFFCCF80E102
:1079D0008093C6001F910895E0910401F091050184
:1079E00009951F9108950E94763C803241F0809164
:1079F00003018F5F80930301853081F008958091AA
:107A0000C00085FFFCCF84E18093C6008091C00058
:107A100085FFFCCF80E18093C6000895E0910401CA
:107A2000F09105010995089540E951E08823A1F0FE
:107A30002D9A28EE33E0FA013197F1F721503040CA
:107A4000D1F72D9828EE33E0FA013197F1F7215064
:107A50003040D1F7815061F708953F924F925F9285
:107A60006F927F928F929F92AF92BF92CF92DF924E
:107A7000EF92FF920F931F93CF93DF93000080E16B
:107A80008093C4001092C50088E18093C10086E015
:107A90008093C2005098589A259A81E00E94143D24
:107AA00024E1F22E9EE1E92E85E9D82E0FE0C02ECA
:107AB00010E1B12EAA24A394B1E49B2EA6E58A2E50
:107AC000F2E57F2EE0E26E2E79E4572E63E5462E36
:107AD00050E5352E0E94763C8033B1F18133B9F107
:107AE000803409F46FC0813409F476C0823409F41B
:107AF00085C0853409F488C0803531F1823521F1A3
:107B0000813511F1853509F485C0863509F48DC0BC
:107B1000843609F496C0843709F403C1853709F423
:107B200072C1863709F466C0809103018F5F80932C
:107B30000301853079F6E0910401F0910501099582
:107B40000E94763C803351F60E94F33CC3CF0E94E2
:107B5000763C803249F78091C00085FFFCCFF092DF
:107B6000C6008091C00085FFFCCF9092C600809136
:107B7000C00085FFFCCF8092C6008091C00085FFC9
:107B8000FCCF7092C6008091C00085FFFCCF609250
:107B9000C6008091C00085FFFCCF5092C600809146
:107BA000C00085FFFCCF4092C6008091C00085FFD9
:107BB000FCCF3092C6008091C00085FFFCCFB09210
:107BC000C60088CF0E94763C863808F4BDCF0E945C
:107BD000763C0E94F33C7ECF0E94763C803809F4CC
:107BE0009CC0813809F40BC1823809F43CC1883942
:107BF00009F48FC080E00E94C73C6CCF84E10E94F2
:107C0000BD3C0E94F33C66CF85E00E94BD3C0E94D3
:107C1000F33C60CF0E94763C809306010E94763C44
:107C2000809307010E94F33C55CF0E94763C80333D
:107C300009F41DC183E00E94BD3C80E00E94C73C66
:107C400049CF0E94763C809309020E94763C809343
:107C5000080280910C028E7F80930C020E94763C79
:107C6000853409F415C18091080290910902892B8D
:107C700089F000E010E00E94763CF801E85FFE4FDA
:107C800080830F5F1F4F80910802909109020817AF
:107C9000190788F30E94763C803209F045CF809125
:107CA0000C0280FF01C16091060170910701660F0F
:107CB000771F7093070160930601A0910802B091AD
:107CC00009021097C9F0E8E0F1E09B01AD014E0F09
:107CD0005F1FF999FECF32BD21BD819180BDFA9A17
:107CE000F99A2F5F3F4FE417F50799F76A0F7B1F4B
:107CF00070930701609306018091C00085FFFCCF5F
:107D0000F092C6008091C00085FFFCCFB092C60003
:107D1000E1CE83E00E94C73CDDCE82E00E94C73CFA
:107D2000D9CE0E94763C809309020E94763C8093D3
:107D300008028091060190910701880F991F909386
:107D40000701809306010E94763C853409F4A6C0A1
:107D500080910C028E7F80930C020E94763C8032D0
:107D600009F0B8CE8091C00085FFFCCFF092C6002C
:107D7000609108027091090261157105B9F140E046
:107D800050E080910C02A82FA170B82FB27011C0E2
:107D9000BB2309F45CC0E0910601F0910701319624
:107DA000F0930701E09306014F5F5F4F46175707B7
:107DB000E8F4AA2369F3F999FECF209106013091E6
:107DC000070132BD21BDF89A90B58091C00085FFB2
:107DD000FCCF9093C6002F5F3F4F30930701209355
:107DE00006014F5F5F4F4617570718F38091C00099
:107DF00085FDE5CE8091C00085FFF8CFE0CE81E023
:107E00000E94C73C67CE0E94763C803209F08CCE3F
:107E10008091C00085FFFCCFF092C6008091C00029
:107E200085FFFCCFE092C6008091C00085FFFCCFAB
:107E3000D092C6008091C00085FFFCCFC092C600E2
:107E40008091C00085FFFCCFB092C60043CEE09188
:107E50000601F091070194918091C00085FFFCCF4D
:107E60009093C6009CCF80E10E94C73C33CE0E9415
:107E7000763C0E94763C182F0E94763C112309F430
:107E800083C0113009F484C08FE00E94C73C22CE29
:107E900080910C02816080930C02E5CE80910C02EF
:107EA000816080930C0259CF809107018823880F4D
:107EB000880B8A2180930B02809106019091070123
:107EC000880F991F90930701809306018091080203
:107ED00080FF09C080910802909109020196909359
:107EE000090280930802F894F999FECF1127E091D6
:107EF0000601F0910701C8E0D1E08091080290915D
:107F00000902103091F40091570001700130D9F34B
:107F100003E000935700E89500915700017001308D
:107F2000D9F301E100935700E89509901990009169
:107F3000570001700130D9F301E000935700E89534
:107F40001395103498F011270091570001700130FB
:107F5000D9F305E000935700E895009157000170B0
:107F60000130D9F301E100935700E895329602976A
:107F700009F0C7CF103011F00296E5CF112480919F
:107F8000C00085FFB9CEBCCE8EE10E94C73CA2CD19
:0E7F900085E90E94C73C9ECDF894FFCF80008B
:00000001FF
